:02000002F0000C
:10400000000004206DB20F0095B20F0097B20F00B0
:1040100099B20F009BB20F009DB20F00000000008C
:10402000000000000000000000000000F9450F0043
:10403000A1B20F0000000000A3B20F00114F0F004B
:1040400035500F00A7B20F00A7B20F00A7B20F00A4
:10405000A7B20F00A7B20F00A7B20F00A7B20F00C0
:10406000A7B20F00A7B20F00A7B20F00A7B20F00B0
:10407000A7B20F00A7B20F00A7B20F00A7B20F00A0
:10408000A7B20F00E9740F00A7B20F00A7B20F008C
:10409000A1750F00A7B20F00ED4B0F00A7B20F00E4
:1040A000A7B20F00A7B20F00A7B20F00A7B20F0070
:1040B000A7B20F00A7B20F00000000000000000030
:1040C000A7B20F00A7B20F00A7B20F00A7B20F0050
:1040D000A7B20F00A7B20F00A7B20F0049870F00C9
:1040E000A7B20F00A7B20F00A7B20F000000000098
:1040F00000000000A7B20F0000000000A7B20F00F0
:1041000000000000000000000000000000000000AF
:10411000000000000000000000000000000000009F
:10412000000000000000000000000000000000008F
:10413000000000000000000000000000000000007F
:10414000000000000000000000000000000000006F
:10415000000000000000000000000000000000005F
:10416000000000000000000000000000000000004F
:10417000000000000000000000000000000000003F
:10418000000000000000000000000000000000002F
:10419000000000000000000000000000000000001F
:1041A000000000000000000000000000000000000F
:1041B00000000000000000000000000000000000FF
:1041C00000000000000000000000000000000000EF
:1041D00000000000000000000000000000000000DF
:1041E00000000000000000000000000000000000CF
:1041F00000000000000000000000000000000000BF
:1042000010B5054C237833B9044B13B10448AFF310
:1042100000800123237010BDC8860020000000002C
:1042200014B90F00084B10B51BB108490848AFF38B
:1042300000800848036803B910BD074B002BFBD072
:10424000BDE81040184700BF00000000CC860020E9
:1042500014B90F00C486002000000000154B002B8D
:1042600008BF134B9D46A3F5803A00218B460F46AD
:104270001348144A121A00F063F80F4B002B00D0B9
:1042800098470E4B002B00D09847002000210400D7
:104290000D000D48002802D00C4800F015F900F080
:1042A00027F82000290000F0A9FA00F011F800BF5B
:1042B00000000800000004200000000000000000D2
:1042C000C88600207CE10020C9440F00D5440F00BF
:1042D00008B50021044600F08BF8044B1868C36B46
:1042E00003B19847204600F05BF900BFF0B60F001D
:1042F00070B50F4E0F4D761BB61018BF002405D0B9
:10430000013455F8043B9847A642F9D10A4E0B4DAB
:10431000761B07F0DFF9B61018BF002406D0013471
:1043200055F8043B9847A642F9D170BD70BD00BF57
:10433000B8860020B8860020C0860020B8860020FD
:1043400070B4840746D0541E002A41D0CDB2034633
:1043500002E0621EE4B3144603F8015B9A07F8D149
:10436000032C2ED9CDB245EA05250F2C45EA05458B
:1043700019D903F110022646103E0F2E42F8105CA8
:1043800042F80C5C42F8085C42F8045C02F110024E
:10439000F2D8A4F1100222F00F0204F00F04103240
:1043A000032C13440DD91E462246043A032A46F82C
:1043B000045BFAD8221F22F003020432134404F0F3
:1043C00003042CB1C9B21C4403F8011BA342FBD166
:1043D00070BC704714460346C2E700BF024B13B1DE
:1043E000024800F071B8704700000000D5440F008B
:1043F0002DE9F04F324B85B01B68029303F5A4738F
:1044000001900E460393029BD3F848713FB3DDF849
:104410000CA04FF00109D3467C68651E0ED4013410
:1044200007EB84044FF00008E6B1D4F800319E4257
:1044300018D0013D6B1CA4F10404F5D1214B73B1DC
:104440007B68002B36D13B68002B34D03846CBF844
:104450000030AFF30080DBF80070002FDCD105B036
:10446000BDE8F08F7B682268013BAB420CBF7D60EA
:10447000C4F80080002ADCD0D7F88811D7F804A04F
:1044800009FA05F30B420FD0D7F88C110B420DD16E
:10449000D4F88010019890477B685345B3D1DBF87E
:1044A0000030BB42C5D0AEE79047F5E7D4F88000B6
:1044B0009047F1E73B68BB461F46002FACD1CEE7E3
:1044C000F0B60F0000000000002301461A4618460F
:1044D00000F014B838B5074D074C2C1BA41005D0BC
:1044E000013C55F8043D9847002CF9D1BDE838400F
:1044F00007F0F6B8C4860020C08600202DE9F047FA
:10450000254C2568D5F84841064688469246994686
:10451000C4B360681F2817DC431C76B104EB800528
:104520000122C5F888A0D4F8881182401143022ED8
:10453000C4F88811C5F808911ED00230636044F8B1
:1045400020800020BDE8F087144B03B34FF4C870FF
:10455000AFF300800446D0B1D5F84831002780E899
:104560008800C5F8484138460123C4F88871C4F86A
:104570008C71002EE1D0D1E7D4F88C110A43C4F835
:104580008C21DAE705F5A674C5F84841C1E74FF07C
:10459000FF30BDE8F08700BFF0B60F00000000005C
:1045A000FEE700BF70B50D4600BB0968E1B1114CD4
:1045B000A14211D0631A3B2B0AD801F13C03481EDB
:1045C000984209D013F801695A1A22445670F7E745
:1045D0003C22204606F077FE00223C21054803F0ED
:1045E000D1FA0023A08702E00E2300E001232B6014
:1045F00070BD00BF807F0020074A6FF002039E4518
:1046000002D1EFF3098101E0EFF308818869A0F19D
:1046100002000078104700BFA5450F0038B50546D9
:10462000A8B10D4C00223C21204603F0ABFAA38F29
:1046300083420ED1234604F13C0253F8041B45F893
:10464000041B9342F9D10130A087002038BD0E2011
:1046500038BD0B2038BD00BF807F00200B2970B50E
:10466000044615462ED9038900EB43030A33C21AC8
:104670000A44D2B2012A25D901448B4222D81946D4
:10468000134806F020FE2388522B1DD1AB0704D01F
:1046900062884CF668639A4216D134F8081F0023EA
:1046A0004FF6FE7043F20C058B4209D234F8022F0C
:1046B00082420BD02E88964203F10103F4D105E02B
:1046C0000B2070BD092070BD0F2070BD002070BD93
:1046D000E486002008B5002203F054FA044A517819
:1046E000137843EA0123984214BF0B20002008BD31
:1046F000E486002038B50C4C21684B1C054612D0CE
:104700004FF48052094806F0CFFD48B115B120683A
:1047100000F0ECFC4FF480620449206800F006FDD4
:104720004FF0FF33236038BD28840020F08600203E
:104730002DE9F0410F4E904620F47F64326824F05A
:104740000F04944205460F4609D01846FFF7D2FFE2
:104750004FF4805221460848346006F0B4FD064804
:10476000C5F30B05424639462844BDE8F04106F042
:10477000AABD00BF28840020F0860020BFF34F8F21
:104780000549064BCA6802F4E0621343CB60BFF3ED
:104790004F8F00BFFDE700BF00ED00E00400FA0509
:1047A0004BDF704710DF704711DF704713DF704732
:1047B00018DF704760DF704769DF704761DF70475F
:1047C0001FB5102200216846FFF7BAFD0223684694
:1047D0000093FFF7EDFF05B05DF804FB08B5034B50
:1047E0001B68DB0700D500BEFFF7C8FFF0ED00E057
:1047F000014B1878704700BFF09600202DE98048E3
:10480000AC4B40F2034289B0C3F8402500F082FA75
:1048100000F00CFF002000F083FB00F08BFF48B19C
:10482000052000F07DFB00F097FF00F0BBFF0620A5
:1048300000F076FB4FF080439F4FD3F81C45B12C1E
:104840000CBF012300233B7004D0A4F1A8014B420C
:104850004B4100E00123994DDFF890922B704FF00F
:104860008042D2F8006406F0010693B94E2C10D0B5
:10487000572C0ED0924A12681168924A914201D187
:1048800033463EB96D2C05D0082000F0C9F98046AA
:104890000CE001234FF0804200216D2CC2F81C1562
:1048A00000F02881002BEFD04FF001082B7808F0A2
:1048B000010A3BB9082000F0B3F920B1082000F04C
:1048C000AFF900E0012000F00100287000F0DEFDEB
:1048D000024640B1B8F1000F05D1794B1B68196849
:1048E000794B994225D043F204031B684B4540F0B5
:1048F000278143F208031B6803F500731968734BA3
:10490000994200F01681B8F1000F40F01281002AA0
:1049100000F01281002E00F01181694B69491B687B
:10492000019219606A4B6B4843F001039847019A62
:10493000C24643F2040365491B684B4509BF43F275
:1049400008034FF490531B6803F500738B461B68F4
:104950008B425B4B04BF01F14741A1F514211B6859
:104960000CBFA1F6FE0100211960BAF1000F02D1BF
:10497000002A40F0BF802B78002B70D0082000F078
:10498000CFFA3B780BB9FFF71BFF01234FF47420DC
:104990003B70FFF70BFF504B50491868039003A87A
:1049A000FFF700FF4E4991F816335A09EC231341E3
:1049B000DA0708D54B4B9A68002A00F0B6801A68CF
:1049C00042F480021A60484B04930C22002105A88F
:1049D000FFF7B6FC01264FF00008049A8DF814602A
:1049E00005A940208DF815608DF816808DF8178088
:1049F000FFF7E2FE41460C2205A8FFF7A1FC9DF857
:104A00001430049A334305A9A0208DF81430FFF721
:104A1000D3FE41460C2205A8FFF792FC1723049A07
:104A2000ADF8163005A923208DF81460FFF7C4FEF9
:104A300041460C2205A8FFF783FC0623ADF8183089
:104A400008AB05A953F8102D8DF8146020208DF8BF
:104A50001660FFF7B1FE1846FFF7ACFE08E0022033
:104A600000F05EFAA4F14E035842584103F070FE84
:104A700043F204031B684B4509BF43F208034FF49C
:104A800090531B6803F500731B685B4503D0572CDC
:104A900001D04E2C03D1012240F6B83101E00022B2
:104AA0001146287800F0DAFD2B780BB3FFF77CFE77
:104AB00020E000BF00A00040F1960020F09600200A
:104AC0002C840020D51A5A007E67E54E7CB0EE8714
:104AD00000B70F000048E801F4B60F00DD470F00F3
:104AE00000E100E0B0E0002000800020DBE5B151F3
:104AF00003F07EFE00F08EF900F0C8FC98B100F0E3
:104B000019FE80B943F204031B684B4505D13B787D
:104B10000BB9FFF755FEFFF747FE0B4B1B68002252
:104B20001A6000F0D7FDFFF729FE4FF480030B60F9
:104B300049E74FF0010AFCE69246FAE6B246F8E68B
:104B40004FF49053DAE600BF2C84002010B58EB0ED
:104B50003423ADF802300DF10201002301A8ADF8B5
:104B60000430FFF72BFE044690B9BDF80430102B3B
:104B700005D0112B09D1084B1870082003E0064B13
:104B800001221A70072000F0CBF901A801F092F879
:104B900020460EB010BD00BFF296002013B502A84B
:104BA000002340F8043DFFF7FBFD044680B901985F
:104BB00002F040FB019B0A2B05D0092B05D00B2BE3
:104BC00006D1012002E0204600E0022004F01EFC95
:104BD000204602B010BD08B5FFF7B8FF0528FBD18D
:104BE000FFF7DCFF0528F7D108BD00000021024ACD
:104BF000084602F0E5BE00BFD74B0F001F2884BF58
:104C000000F01F00044B054A98BF4FF0A04300F589
:104C1000E07043F820207047000300500C000300B0
:104C20001F288ABF064B4FF0A04300F01F00D3F8A7
:104C3000103523FA00F000F0010080F00100704709
:104C40000003005000234FF0FF328360C0F80035AE
:104C5000C0F86025C0F86425C0F86825C0F86C2548
:104C600040F2FF32C0F80435C0F80825C0F80C3512
:104C7000C0F81035C0F81435C0F82035C0F8243518
:104C800070470000204B00221F2910B5C3F80025F3
:104C90008BBF01F01F030B461C4A4FF0A04203F5E7
:104CA000E0731F294FF0030442F8234087BF01F04F
:104CB0001F03164A0B464FF0A042012404FA03F3E7
:104CC000C2F80C3500F5AC700F4B002243F82010F1
:104CD000FF21C3F804250220C3F808150421C3F8F6
:104CE0000C15C3F810050A48C3F81425C3F82005AD
:104CF000C3F82415C3F82825C3F82C25C3F80045AC
:104D0000C3F8102110BD00BF00C0014000030050D7
:104D1000F498002038B54FF0804301240025DC6072
:104D20000820C3F818559C60FFF768FF0820FFF7BC
:104D300065FF2E4B4FF4C850234398472321284644
:104D4000FFF7A0FF24212046FFF79CFF4FF0102320
:104D5000D3F8043303F00703052B25D0244BC3F805
:104D60000445D3F80014224A0029FAD04FF010214C
:104D7000D1F8043323F0070343F00503C1F80433EB
:104D80000023C2F80435D2F80034002BFBD0BFF367
:104D90004F8F1849184BCA6802F4E0621343CB6086
:104DA000BFF34F8F00BFFDE7144A1E21082002F019
:104DB000E3FD08B102F09CFE02F044FD0D49104BEA
:104DC000E02081F823001B684FF47A72B3FBF2F302
:104DD000013BB3F1807F07D20A4A5360002381F878
:104DE000230093600723136038BD00BF10B70F0086
:104DF00000E0014000ED00E00400FA050497002007
:104E00003084002010E000E00148FFF71BBF00BF26
:104E100000C0014008B5164B00211960FFF7F4FFF0
:104E2000144B4FF40032C3F8802003F1C04303F564
:104E30003C534FF48032C3F84823C3F808230122BF
:104E40005A609A604FF080430220DA600B461F2BB5
:104E50001A46C6BF03F01F0207494FF0A04102F5F2
:104E6000E0720133302B41F82200F0D108BD00BFC1
:104E700010E000E000E100E000030050074B23F8E1
:104E80001010074B00221A6082B01B680193019B2F
:104E9000044B01221A6002B0704700BFF498002052
:104EA00010C1014008C0014010B5164B1C68164BDC
:104EB0001868B4FBF0F3410800FB13428A4288BF34
:104EC000821A4F235343B3FBF1F1C1F1FF0189B2C1
:104ED0000020FFF7D3FF0D4B1B68B4FBF3F15A081A
:104EE00003FB1141914288BF591A8F235943B1FBEB
:104EF000F2F1C1F1FF0189B20120BDE81040FFF7D6
:104F0000BDBF00BFFC960020F8960020F49600205C
:104F1000024A136801331360FFF7C6BFFC960020F6
:104F20001C4B19681A4608282AD8DFE800F00C053F
:104F30000C292913171C2200174B40F6B8301860B3
:104F40004FF47F431DE0144B4FF4967018604FF4FC
:104F50007F0316E0104B64221A6070470E4B40F638
:104F6000B83018600CE00D4B40F6B8301860FF23E5
:104F700007E00A4B4FF4967018604FF0FF1300E003
:104F80000B4603F0103323F08053994218BF13608F
:104F9000704700BF00970020F8960020F49600208C
:104FA00000F1804382B01A68002A14BF012000205B
:104FB00004D000221A601B680193019B02B0704765
:104FC0000F4B1A78D2B902784FF08041C2F34002F9
:104FD000C1F88025027802F00102C1F87825094A5B
:104FE0001168C90706D4E02182F800130121C2F834
:104FF0008011116001221A700348704703487047FE
:10500000ACE0002000E100E00000AD0B0C00AD0BB7
:10501000034B00221A60026802B11A60704700BF99
:10502000FC9800204FF080434FF46072C3F80423D3
:105030007047000010B54FF08043D3F80443620777
:1050400007D54FF48470FFF7ABFF10B11E4B1B6800
:105050009847A30608D54FF48A70FFF7A1FF18B14F
:105060001A4B00201B689847600608D54FF48C70D7
:10507000FFF796FF18B1154B01201B6898472106D2
:1050800008D54FF48E70FFF78BFF18B1104B00203E
:105090001B689847E20508D54FF49070FFF780FF32
:1050A00018B10B4B01201B689847A3050AD54FF494
:1050B0009270FFF775FF28B1054B02201B68BDE811
:1050C0001040184710BD00BF00990020049900202F
:1050D000FC980020044AD2F80034DB07FBD50160BD
:1050E000BFF35F8F704700BF00E001404FF0805377
:1050F0001A69B0FBF2F302FB13037BB9084B0222DF
:10510000C3F80425C3F80805D3F80024D207FBD55B
:10511000034B04480022C3F8042570470248704737
:1051200000E001400000AD0B0A00AD0BF8B50B4BE1
:1051300016460122C3F804250C460025471AAE4244
:1051400006D0381954F8041BFFF7C4FF0135F6E701
:10515000024B0022C3F80425F8BD00BF00E0014067
:10516000BFF34F8F0549064BCA6802F4E062134350
:10517000CB60BFF34F8F00BFFDE700BF00ED00E045
:105180000400FA05064B1B68082B06D1054B1B686B
:10519000032B02D8044AD05C70470020704700BF40
:1051A000300100103401001016B70F00034B1868CF
:1051B000A0F1080358425841704700BF3001001069
:1051C00008B5FFF7F3FF40B14FF080430022C3F86A
:1051D0000C21C3F81021C3F83825FFF7E7FF00289A
:1051E00046D04FF08052694BD2F80414C3F8201512
:1051F000D2F80814C3F82415D2F80C14C3F82815F3
:10520000D2F81014C3F82C15D2F81414C3F83015C2
:10521000D2F81814C3F83415D2F81C14C3F840158A
:10522000D2F82014C3F84415D2F82414C3F8481552
:10523000D2F82814C3F84C15D2F82C14C3F8501522
:10524000D2F83014C3F85415D2F83414C3F86015EA
:10525000D2F83814C3F86415D2F83C14C3F86815B2
:10526000D2F84014C3F86C15D2F84424C3F8702562
:10527000FFF788FF10B1464B464A1A60FFF782FFDE
:1052800018B1454BFB22C3F81825FFF77BFF48B147
:105290004249434A0B68126823F00F0302F00F02E1
:1052A00013430B60FFF76EFF18B13E4B4FF40072D3
:1052B0001A60FFF77BFF48B14FF08043D3F800241A
:1052C000D10744BF6FF00102C3F80024364AD2F878
:1052D000883043F47003C2F88830BFF34F8FBFF3B8
:1052E0006F8F4FF01023D3F80C22D2071ED52F4B0F
:1052F0000122C3F80425D3F80024002AFBD04FF084
:1053000010222A49D2F80C3223F00103C2F80C32E1
:10531000D1F80024254B002AFAD00022C3F8042536
:10532000D3F80024002AFBD0FFF71AFFD3F800229D
:10533000002A03DBD3F80432002B23DA1B4B0122B3
:10534000C3F80425D3F80024002AFBD04FF0102224
:105350001221C2F80012D3F80024002AFBD04FF02B
:10536000102312221149C3F80422D1F800240F4B54
:10537000002AFAD00022C3F80425D3F80024002A1A
:10538000FBD0D1E70A4B0B4A1A6008BD00C00040B1
:105390008C5600404881030000F00040E40E0040BD
:1053A000580200104096024000ED00E000E001408D
:1053B000308400200090D00313DF704718DF70475F
:1053C000064B1878012803D1012904BF0221197066
:1053D00012B1104602F08CBB704700BF0A99002042
:1053E00038B5104C104DD4F800340E4A53B902F0C1
:1053F0004DFB05F039FF70B104F0CCFD002005F045
:10540000D7F908E0002303F5C0710133082B42F8F7
:105410002150F8D1EBE7054B1B78023B022BE2D879
:1054200038BD00BF000001403546526E0A99002089
:1054300008B5FFF7DDF988B11C21114801F096FF8E
:1054400008B102F055FB00231C220E490C4801F064
:105450007DFF98B1BDE8084002F04ABB4FF47F20C1
:10546000FFF744FE072207494FF47F20FFF75EFE57
:10547000054B1A78012A04BF02221A7008BD00BF2A
:10548000289900200C9900200A99002013B543F2B6
:10549000040301A81A68124B9A420ABF43F2080398
:1054A0004FF480541C6800F0ABF92368013302D13B
:1054B0006368013310D0019B1A88012A0CD15888E7
:1054C00020B100229968204602F05CFB019B5B88BA
:1054D0001B1A5842584100E0002002B010BD00BF26
:1054E000DBE5B15184B02DE9F34108AC84E80F004D
:1054F0009DF82040BDF82280099F0A9E0B9D01A8BF
:1055000000F07EF944B9384B0122FF21A3F8028054
:105510009D601A8099803EE0012C13D1324BBA195C
:105520002A449A60A5221A80FF229A800C9AA3F836
:105530000280DF601E615D619A612C4B1C70FFF779
:1055400077FF4BE0032C0DD1019A274B118819806E
:10555000518892689A60AA2259809A80DF601E6101
:105560005D6117E0022C19D1019A1F4B1188A52902
:1055700005D100225A809A60FF221A8004E0198027
:105580005188926859809A60FF229A800022DA60DE
:105590001A615A610122154B1A70D0E7052C0CD103
:1055A000FFF726F910B100F07DFD01E000F020FAD0
:1055B00008B102F09DFA03220EE0042C09D10A4B37
:1055C00000229A605A80FF221A80019A92889A805B
:1055D000B5E7062C02D10422044B1A7002B0BDE8D4
:1055E000F04104B0704700BF0C9900200A990020D8
:1055F00000B50C4B1B7889B063B90B4B1B786BB9AA
:1056000005238DF80C30079B009303AB0FCBFFF7FE
:1056100069FF03E004F0BEFA0028EED009B05DF89F
:1056200004FB00BF09990020089900201FB5002342
:1056300002930393074B019301F050FE30B90649E2
:105640004FF47F2301A84B6001F06EFE05B05DF8BA
:1056500004FB00BFC1530F002899002070B5044619
:105660000D460AB180F00102154B02F001021A70DA
:1056700000F08AFF10BB14B100F050FC1AE0BDB17D
:10568000104B114A11481C70214602F00DF94FF4DD
:1056900000464FF4FA7000214FF47A720023E6FBC3
:1056A000050105F08BFE22460146094802F00EF97D
:1056B00000F07AF90446FFF793FE204670BD00BF64
:1056C0000999002008990020F1550F0028B70F0014
:1056D000309900201FB5154B4FF0FF32C3F88020E2
:1056E000C3F8802143F204031A68114B9A4206D191
:1056F00043F208031B681846FFF75EFE0CE0102219
:1057000000216846FEF71CFE0623009368464FF40E
:1057100080530193FFF752FE10B14FF00052136017
:10572000184600F091F805B05DF804FB00E100E0D8
:10573000DBE5B15107B501A800F062F8019B1A88BA
:10574000A52A05D09888A0F1AA035842584100E044
:10575000012003B05DF804FB10B501F037F950B13A
:105760000E4B0F4843F00103984701F09BF838B106
:1057700002F0BEF904E001F001F90028F0D110BDFB
:1057800001F024F908B102F0B3F901F0D1F80446B0
:1057900008B102F0ADF9204610BD00BF20B70F00E0
:1057A00000A8610010B588B003AC14220021204687
:1057B000FEF7C6FD02238DF80C300023009394E819
:1057C0000F00FFF78FFEFFF70BFE002008B010BDA3
:1057D00013B5044601A800F013F8019B1A88228033
:1057E0005A8862809A68A2609A88A280DA68E26029
:1057F0001A6922615A6962619B69A36102B010BD96
:10580000014B0360704700BF00F00F00F0B5034686
:10581000186880F308885868FF2464B2EFF30585A0
:10582000002D01D1A64600472546064621273FBA4E
:10583000F0B40024002500260027F0B4F92040B27F
:10584000004700BFF0BD00BFFFF7E0BFF7B5002382
:105850000DF1020101A8ADF80230019302F0DAFD6A
:1058600020BB019A16785EB3184B93F830100329C9
:1058700028D00C2707FB00F5144C595999B994F816
:10588000303066510133DBB284F83030BDF802307D
:1058900060199B08013B0432436082600C4A084651
:1058A00002F08EF802E001300428E3D1019B5BB1E5
:1058B00050B1184602F0CAFD30B102F019F903E008
:1058C0000720F3E70420F1E703B0F0BD5099002072
:1058D00019590F0011B1084602F00AB970470000CB
:1058E00010B50C230B4A4343D418D15881B192F818
:1058F0003010A0680139C9B282F830100021D150AF
:10590000A1606160043802F0A1FD08B102F0F0F876
:10591000002010BD50990020214B70B50122214E6E
:105920001A7096F83030002B39D01E4C00252368B1
:105930007BB3013B042B26D8DFE803F010250703D7
:105940001C00204600F0B8FE1DE0A36863602046FE
:1059500000F056FEB8B102F0CBF814E0204600F09B
:1059600039FF00F013FF08B102F0C2F80520FFF77D
:10597000D7FA08E000F05AFF00F078FF0620BDE8F3
:105980007040FFF7CDBAE8B2FFF7AAFF08B102F006
:10599000AFF80135042D04F10C04C8D1C1E770BD86
:1059A00008990020509900200E4A08B5002382F87B
:1059B00030301946D150D0180C33302B8160416003
:1059C000F8D1094800F016FE02F0BEFC08B102F062
:1059D0008FF8064802F0A4FC08B102F089F8002014
:1059E00008BD00BF50990020D5580F004D580F003A
:1059F00008B50020FFF774FF0120FFF771FF0220B8
:105A0000FFF76EFF0320FFF76BFFBDE8084002F0D1
:105A1000E1BC006870476CDF70476DDF70476EDF78
:105A200070476FDF704772DF704773DF704774DF56
:105A3000704776DF704777DF70477ADF70477CDF2B
:105A400070477FDF704786DF70478FDF704790DFDA
:105A50007047AFDF7047B0DF7047B1DF7047B2DF2C
:105A60007047B5DF704764DF704766DF70470C280A
:105A700013D8DFE800F014121212121209120712E2
:105A8000120D0B000220704703207047042070475E
:105A900004290CBF0520062070470620704701200E
:105AA000704702F025B810B5044608460321FFF7F9
:105AB000DEFF03210246204601F086F918B1BDE859
:105AC000104002F015B810BD032810B50B4614465F
:105AD00019D0042825D149B1124B18884FF6FF730D
:105AE00098421ED01321FFF7A4FF15E0104602F0E4
:105AF000A5F808B101F0FCFF0B4B1B689C4210D1CC
:105B00000122032105E001211846FFF7B0FF012122
:105B10000246064801F058F918B1BDE8104001F0FE
:105B2000E7BF10BD3484002090990020B099002078
:105B3000F8B50A4DAB889E181D2E14460DDC2F6853
:105B4000FE1802F1010E07F803E07070B01C05F0BA
:105B5000BAFBAB8802331C44AC80F8BD949900209A
:105B6000F0B5494D2C7893B0002C40F08B80474E17
:105B7000102221463046FEF7E3FB454B33601822E6
:105B800021460CA8FEF7DCFB28230E93414B1B7823
:105B900001278DF8307006AEABB321463E4C102283
:105BA00002A8FEF7CDFB102202A9E01D05F07CFB48
:105BB00048B33A4839460460FFF731FF08B101F0B5
:105BC00097FF374B374603F1100E186859683A466D
:105BD00003C2083373451746F7D12068A2880A909C
:105BE0003048A379ADF82C20002101228DF82E3009
:105BF0000660FFF716FF08B101F07AFF03238DF866
:105C00004430042300E006238DF8063041F230537F
:105C1000ADF80830244B32469B798DF80A300DF1EF
:105C2000070102A8FFF71FFF012210460DF1060130
:105C3000FFF77EFF1D4805F07BFB1C49C2B209201F
:105C4000FFF776FF102231460620FFF771FF0CAAFE
:105C50000E491748FFF7E7FE08B101F049FF144B62
:105C6000042219780120FFF7E6FE1C4608B101F076
:105C70003FFF01212078FFF7D8FE08B101F038FF7F
:105C800001232B7013B0F0BD8C9900209499002053
:105C9000299A002084990020E6990020249A002067
:105CA000ED99002088990020B09900202CB70F00B2
:105CB00036840020F0B504460146B1B08D4801F0AD
:105CC000B7F82388212B00F0FA8026D8112B36D084
:105CD0000CD8012B00F09580102B40F00981864BE9
:105CE000A2881A80854B00221A7001E1142B00F063
:105CF000A4801A2B00F0B080132B40F0F980804B69
:105D000003AC9A79186899888DF822200790DA1DDB
:105D1000ADF82010173326462AE0512B77D005D84E
:105D2000232B00F0C580262B4DD0E1E0552B00F051
:105D3000D180562B3DD0522B40F0DA808CE030AA37
:105D4000802322F89C3D6C4C6E4B208832211960D8
:105D5000012310A9FFF783FE08B101F0C9FE6A4BC9
:105D60001B780BB9FFF7FCFE4FF6FF732380BFE0F3
:105D700010685168254603C508329A422C46F7D16F
:105D8000624B09AA03F118071546186859681446AA
:105D900003C40833BB422246F7D118682060564836
:105DA0005B4A0088159610AB85211495FFF749FED4
:105DB00098E0A379002B40F09B804F4B132118886B
:105DC000FFF737FE8EE0237A012B40F091804B4B9A
:105DD00000221A704B4B19680139196071B910AC67
:105DE00014222046FEF7ACFA05238DF84030149BB0
:105DF000009394E80F00FFF775FB79E0FFF7B0FE22
:105E000076E03D4B00211888FFF72FFE6AE0A3796A
:105E1000002B6DD0A27B043A022A69D8022B18BF4E
:105E200001238DF840304FF4C173ADF84430324B4C
:105E300010A91888FFF70FFE54E0314A258A518DCA
:105E400002F1180000238D420CBF014619460732AB
:105E5000A088FFF7F8FD45E0274B1C884FF6FF753B
:105E6000AC4243D02B4B1B78E3B1012308222A49D3
:105E70002046FFF7F2FDB0BB024601460223204652
:105E8000FFF7EBFD78BB2A460C212046FFF7E1FD2A
:105E9000A0F54053023B012B2AD9082828D011280D
:105EA00020D125E01A4619462046FFF7D6FD19E015
:105EB000114B002211461888FFF7C9FD12E000239C
:105EC0008DF840308DF841300B4B10A91888FFF742
:105ED000BCFD0DE0E188084B172928BF1721188861
:105EE000FFF7BFFD20B101F003FE01E00820FAE753
:105EF00031B0F0BDB0990020348400208C9900208E
:105F0000E699002038840020489A0020FE9900205D
:105F1000E0990020849900201A9A002010B5544A74
:105F2000544800231370544A94B0137000F062FB7D
:105F300001F044FE002840F098805048FEF76EFBC8
:105F400018B94F4B01221A7010E004A8FFF765FD45
:105F500008B101F0CDFD9DF8113004A801338DF892
:105F60001130FFF758FD08B101F0C2FD9DF8043073
:105F70004448012262F3030314AC62F3071304F8EC
:105F80004C3D05F0D5F93F4982B22046FFF757FD59
:105F900008B101F0ADFD0822002104A8FEF7D0F9F8
:105FA0000823ADF810301823ADF812300023ADF8F7
:105FB000143004A84FF4C873ADF81630FFF73DFD58
:105FC00008B101F095FD00210C222046FEF7B8F93A
:105FD0000823ADF804302C4B029321462B4B2C4860
:105FE000039300F02FFD08B101F082FD294C002140
:105FF000402204A8FEF7A4F9204605F099F905947B
:10600000254CADF81000204605F092F90794234C7A
:10601000ADF81800204605F08BF99DF84C30ADF82E
:106020003000012262F3030362F307138DF84C3052
:106030009DF84D300D9403F0F0036FF3071304A89F
:106040008DF84D3001F01CF8154A1378032103F048
:10605000F00361F306136FF3C71313700723537034
:1060600010239370FFF77CFD002014B010BD00BF1B
:10607000489A0020C95A0F00AC990020E6990020E8
:10608000849900202CB70F00F5600F00A35A0F0071
:10609000B099002033B70F003FB70F0050B70F0083
:1060A000E099002010B50F4B01221A700E4B188892
:1060B0004FF6FF73984206D01321FFF7BAFC78B170
:1060C00001F016FD0CE0094B1A781C4642B1084B52
:1060D0001878FFF7ACFC08B101F00AFD002323702B
:1060E000002010BD489A0020348400208C990020A4
:1060F00036840020F0B50B7889B005460C46092B94
:1061000000F21481DFE813F026002D0040000A00A1
:1061100012001F00FD00050144000B0100F086FB8A
:106120000421FFF7A4FC0421024629E0FFF7BAFF8F
:1061300008B101F0DDFC00F099FB002800F0F680CA
:1061400000F0A2FBF2E0FFF7ADFF0028F8D001F06D
:10615000CFFCF5E7764B01221A704B681A78754B25
:1061600014E0734B02261E704B681B78012B40F025
:10617000DD8000F00BFB3146FFF779FC024631462B
:10618000284600F021FECEE0694B03221A70CDE0D4
:106190000520FEF7C5FE664B1E78022E2BD0032E7F
:1061A00051D0012E40F0C28004AF102200213846A9
:1061B000FEF7C6F85F4B02971B788DF8103000236E
:1061C0000393237A03220C2B0192D8D163681846DB
:1061D000FFF71FFC0590181DFFF71BFC069003F14D
:1061E0000800FFF716FC079001A800F009FA002844
:1061F00000F09C80BFE7237A13F0030111D0002246
:10620000C1F1040696469818C0B2676801329642FA
:1062100007F800E0F7D10133C1F1030151FA83F32C
:1062200023720123049363680693237A04A89B08CE
:10623000059300F0CFFA002878D00221FFF717FC71
:10624000022102469CE7207A830702D0324631467B
:1062500096E7394E0190314601F0C6FC0146002810
:106260004BD16168019A306805F02DF8019801F072
:1062700021FD0146002840D101A9304601F02AFD48
:106280000146002839D104230493019B9B08059300
:1062900004A83368069300F00FFA074640B9274A6E
:1062A000217A13680B441360254B32681A603DE075
:1062B000092819D1214A217A13681944214B116008
:1062C0001B78002B32D0204A1388013B9BB21380ED
:1062D00014465BBB284600F03DFD08B101F008FC08
:1062E0001A4B1B88238021E0306801F0A7FC01468F
:1062F00010B12846FFF7D7FB39462846FFF7D3FBF6
:1063000014E0104B01221A70104A8B8813800E4A39
:1063100003E00C4A002313700C4A138006E0074B7D
:10632000196800F0DBFC08B101F0E2FB09B0F0BD38
:10633000AC9900208D9900204C9A0020A49900204F
:1063400090990020289A0020AA990020A89900205E
:1063500018DF70470129F8B50D4614461F4602D0D4
:1063600003290CD01AE0114B1B78052B16D1104BCA
:106370001B689BB13A462146042098470EE00B4E1D
:106380003378022B0AD10B4B5B689847084B35706A
:106390001E681EB13A4621462846B04724B1204621
:1063A000BDE8F84001F0A4BBF8BD00BF589A00203A
:1063B000509A0020789A002030B589B003AC14229E
:1063C00000212046FDF7BCFF094B1B88ADF80E30BD
:1063D000084BDB6806930025079B8DF80C50009353
:1063E00094E80F00FFF77EF8284609B030BD00BFE3
:1063F000569A0020689A002000B589B003238DF8D2
:106400000C300A4B1B88ADF80E30094B5A680492C9
:106410009A68DB680693079B0093059203AB0FCB4A
:10642000FFF760F8002009B05DF804FB569A0020E1
:10643000689A002000B589B001238DF80C300F4B0D
:106440001B88ADF80E3043F204031A680C4B9A42D5
:106450000ABF43F208034FF480521A68094B596887
:1064600004919968DB6806930591009203AB0FCB0A
:10647000FFF738F8002009B05DF804FB569A0020B9
:10648000DBE5B151689A002010B588B003AC142246
:1064900000212046FDF754FF04238DF80C30002323
:1064A000009394E80F00FFF71DF808B010BD00003E
:1064B0001A4BF7B51A4C1C601A4B02221A70FEF7E1
:1064C00097F9194B48B11968204600F04FFF10B3F7
:1064D00003B0BDE8F04001F00BBB1D68134F013D58
:1064E0002D0B0135044643F204063368BB420ABF54
:1064F00043F208034FF48050186800EB0430013475
:10650000FEF7F4FDA542F0D8002300931A460321BC
:106510000348FFF71FFF03B0F0BD00BFC49A00207F
:106520005C9A0020589A0020649A0020DBE5B15163
:106530007FB505460C469608032168468DE8220083
:1065400002940396FFF704FFD8B1B4F5805F11D829
:10655000012368468DE8280002940396FFF7F8FEB1
:1065600078B9032368468DE8280002940396FFF764
:10657000EFFE06E01A46E11AE81AFFF7D9FF0028F5
:10658000E6D004B070BD00001FB5134B0193134B50
:10659000134900241C70134B029401A81C8003941F
:1065A00000F0C2FE104B08B11C7012E043F204026E
:1065B000002011680D4A914208BF43F208020849C1
:1065C0000CBF12684FF480524A60094A10600122E1
:1065D0001A7004B010BD00BF55630F00549A00201C
:1065E0005C9A0020569A0020589A0020DBE5B151B1
:1065F000C89A0020014B1860704700BF509A0020D5
:1066000010B54368224C0FCB84E80F0021784B076C
:1066100001D5880735D163681D489A0731D1826852
:1066200094072ED1C06810F003042AD113441844F3
:10663000184BB2F5204F186025D843F204031A68AE
:10664000154B9A4209BF43F208034FF469231B68B4
:10665000C3F56A23834216D3104B114A1A60114ABC
:106660005A60CA0701D5104A03E08A074CBF0F4A97
:106670000F4A9A600F4B1B78012B06D1FFF718FFCA
:1066800004E0062402E00C2400E00824204610BDAB
:10669000689A0020649A0020DBE5B151789A0020C6
:1066A000B1640F0089640F0035640F00F9630F00B7
:1066B000B9630F00589A00202DE9F74300284ED007
:1066C0008668B3074DD12C4B1B78052B4BD12B4F34
:1066D00044682B4D3B682A68A40023449342B84683
:1066E00004D94FF0FF333B600C2041E0FEF780F807
:1066F000DFF8949040B13B68D9F80000224631465B
:1067000000F024FED8B133E043F20403D8F80000CF
:106710001A681C4B9A420ABF43F208034FF4805791
:106720001F682246002331463844FEF701F80094E2
:10673000334600220121D9F80000FFF70BFED8F8FC
:1067400000301C442B68C8F800409C420DD1FEF775
:106750004FF8044658B9FDF7CDFF204608E00E205B
:1067600006E0102004E0082002E0092000E00020FC
:1067700003B0BDE8F08300BF589A0020C89A0020FB
:10678000649A0020DBE5B151C49A002070B50C4B2F
:106790001C688CB90B4E3378042B0DD10A4D0B4B72
:1067A00029781A780A48FDF759FF10B90523337084
:1067B00003E02C70044600E00824204670BD00BFB2
:1067C000C89A0020589A0020549A0020689A002005
:1067D000849A002070B5114B1A78032A02D0042A3B
:1067E00002D015E004221A700D4B1D6885B90D4EBC
:1067F00044683378A4001A19402A0BD881680A48E3
:106800002246184404F05FFD33781C44347002E0E3
:10681000082500E00925284670BD00BF589A0020D1
:10682000C89A0020549A0020849A002010B50B4C7E
:106830002378052B10D10A4B19680A4B1B68994223
:106840000AD106232370084B1B685868FDF742FFE6
:1068500018B90723237010BD082010BD589A0020D6
:10686000C89A0020649A0020C49A0020044B1B7828
:10687000072B02D1034B9B6818470820704700BFC5
:10688000589A0020789A002000B589B006238DF828
:106890000C30079B009303AB0FCBFEF723FE09B030
:1068A0005DF804FB10B58CB005A8FEF791FF089ABF
:1068B000002A3AD00B9C02F58053A34229D943F217
:1068C0000801A4F5805309685B0823F47F638A42BA
:1068D00023F00F0307D85800121A00F58051204406
:1068E000FFF726FE20E003F580500121029003907F
:1068F00001A801910491FFF72BFDA8B94FF4805036
:106900000290039001A801910491FFF721FD58B96D
:10691000E1E70123019392084FF4805301A8029408
:1069200003930492FFF714FD024610460CB010BD0D
:1069300000B58DB005A8FEF74BFF0998C0B1089AC5
:106940004AB943F204031A680B4B9A4206D143F248
:1069500008031B6804E00B9B134401E04FF48053D1
:1069600080080022039001A801920293FFF7F0FC37
:106970000DB05DF804FB00BFDBE5B15100B58DB093
:1069800005A8FEF725FF0998D8B1089A4AB943F23D
:1069900004031A680C4B9A4206D143F208031B68A1
:1069A00004E00B9B134401E04FF480530322800862
:1069B000019204904FF4742201A802920393FFF70E
:1069C000C7FC0DB05DF804FBDBE5B15130B58DB00F
:1069D00005A8FEF7FDFE089828B30B9C00F5805330
:1069E000A34213D943F208031B6898421AD8A4F5AE
:1069F00080535B0823F47F6323F00F035D00421B89
:106A000005F580516019FFF793FD0CE00323800822
:106A1000019304904FF4805301A802930394FFF76D
:106A200097FC00E00E200DB030BDA8DF7047AADF54
:106A30007047ADDF7047AEDF7047B0DF704762DF91
:106A4000704700002DE9F0470F4694B00546002836
:106A500000F03881002900F035814B68002B00F0F0
:106A600031814FF6FF73038000230293994B04AAF0
:106A700003F1100E164618685968144603C408330B
:106A800073452246F7D114AB41F230520DF10A01A1
:106A9000304623F8482DFFF7D2FF002840F014813C
:106AA0002A1D19460120FFF7C0FF0446002840F0C8
:106AB0000C819DF80A30AB7101461C220DA8FDF730
:106AC0003FFC9DF834300E9443F004038DF83430CD
:106AD00001AEAB798DF80E30214641F232530322DC
:106AE00030461094119412941394ADF80C30FDF7C5
:106AF00027FC9DF8043064F3030364F307138DF857
:106B000004309DF805304FF0010A6AF303036AF37D
:106B100007138DF805309DF806306AF3420364F3DD
:106B2000C30364F30413DBB243EA0A0321461422CD
:106B300008A88DF806300DF10C08FDF701FC4FF0A8
:106B4000140905F1080308AA0DA9A888ADF8284082
:106B5000ADF82A400C94CDF820800996ADF82C9021
:106B6000FFF765FF0446002840F0AF8001461C2275
:106B70000DA8FDF7E5FB9DF834300E9443F01803A3
:106B80008DF83430AB798DF80E30214641F2315317
:106B9000032230461094119412941394ADF80C30E3
:106BA000FDF7CEFB9DF8043064F3030364F3071391
:106BB0008DF804309DF805306AF303036AF3071378
:106BC0008DF805309DF806306AF3420364F3C30381
:106BD000DBB243F0110321464A4608A88DF806307F
:106BE000FDF7AEFB1723ADF82C3008AA05F1100312
:106BF0000DA9A888ADF82840ADF82A400C94CDF82E
:106C000020800996FFF713FF044600285DD1014656
:106C10001C220DA8FDF794FB9DF834300E9443F030
:106C200002038DF83430AB798DF80E30214641F2F5
:106C30003453032230461094119412941394ADF8F7
:106C40000C30FDF77DFB9DF804306AF303036AF313
:106C500007138DF804309DF8053064F3030364F3E3
:106C600007138DF805309DF806306AF3420364F38C
:106C7000C30364F30413DBB243EA0A0321464A4622
:106C800008A88DF80630FDF75BFB0223ADF828302D
:106C9000ADF82C3008AA05F120030DA9A888ADF89D
:106CA0002A40CDF8208009960C97FFF7C0FE0446D5
:106CB00058B97B68AB62BB6803B1EB62064B01223B
:106CC0001A7002E00E2400E00446204614B0BDE82D
:106CD000F08700BF61B70F00CC9A002070B5054661
:106CE00086B068B302884FF6FF739A422AD0174BDA
:106CF0001B783BB3164C1022080AE170207121FA70
:106D000002F0090E072301266071A17102A800217B
:106D10006370ADF806302270A670FDF711FB2B8A68
:106D2000ADF808300023ADF80C3002A90DF10603D0
:106D300028888DF80A6004930594FFF77CFE02E032
:106D40000E2000E0082006B070BD00BFCC9A0020E5
:106D5000CD9A002030B5054687B058B302884FF66B
:106D6000FF739A4228D0164B1B782BB3154C112376
:106D700023700B0A6170A3700B0C090EE370217174
:106D800005231022002102A8ADF80630FDF7D8FA3D
:106D90002B8AADF8083001238DF80A300023ADF8B6
:106DA0000C3002A90DF10603288804930594FFF71F
:106DB00042FE02E00E2000E0082007B030BD00BF18
:106DC000CC9A0020CD9A002030B5044687B030B36D
:106DD00000884FF6FF73984223D0134B1B7803B300
:106DE000124D102369700321ADF80610AA7000211E
:106DF0001A4602A82B70FDF7A3FA238AADF80830D3
:106E000001238DF80A300023ADF80C3002A90DF1F2
:106E10000603208804930595FFF70DFE02E00E207F
:106E200000E0082007B030BDCC9A0020CD9A0020A9
:106E300070B50D4688B00446002800F0C1800029D6
:106E400000F0BE80826A002A00F0BA800B88112B05
:106E50001BD004D8102B40F0B3808B8817E0502B48
:106E600002D0512B15D0ABE0C9880389994240F07C
:106E7000A78008238DF81030123535F8023C8DF8C4
:106E80001830059504A990479AE04FF6FF732380C8
:106E900096E08B79022B40F093800A89038A9A420C
:106EA00040F08E808B7B043B022B40F289809DF862
:106EB000163043F001038DF816300B8AADF8183008
:106EC0004B8AADF81A30022601F114030822002182
:106ED00001A807938DF81060FDF732FA002301AA8C
:106EE000A18A2088ADF80630ADF80460CDF808D04E
:106EF000FFF79FFD034618B1E36A2BB1984703E003
:106F00009DF80020D20708D440F2FD1304A9208880
:106F1000ADF81430FFF791FD4EE0ADF8140004A970
:106F20002088FFF78AFD002846D1297D4A1E072ABE
:106F30003ED8DFE802F0040E1C1E20223B248DF810
:106F400004306B8A012B02D80622012131E0012393
:106F500008E06A8A01239A428DF8043002D806229A
:106F6000022126E015358DF80C30029519E0022338
:106F700015E0032313E0042311E005230FE06B8ADF
:106F8000022B02D80322082113E0AA7D6B7D43EA7D
:106F90000223ADF808300BB9072300E006238DF873
:106FA0000430A36A01A92046984709E00923F6E7BF
:106FB00003222046FFF708FF10B1E36A03B19847A8
:106FC00008B070BDA8DF7047AADF70472DE9F04315
:106FD00081468FB0154698460E4611B9084600F016
:106FE00087FD15B9284600F083FD1C220DEB020039
:106FF0000021FDF7A5F99DF81C30ADF804900024A0
:1070000043F0020301272146032268468DF81C3015
:1070100008940A940B940C940D948DF80670FDF767
:107020008FF998F800308DF8003098F801308DF81D
:1070300001309DF8023067F3420303F0E70364F385
:1070400000032146142202A88DF80230FDF778F9DA
:107050000A48CDF80CD001AB029302AA169B008817
:10706000ADF8105007A9ADF81240ADF814500696CF
:10707000FFF7AAFF0FB0BDE8F08300BFF49A00202D
:1070800010B586B006A941F60A03044621F80C3D66
:107090000120284A8DF80E00FFF794FF002847D101
:1070A000228812B92289B2B10BE0234B00936168A8
:1070B00004F13C0342F62920FFF788FF0028F1D0B5
:1070C00036E01E4B0093E16804F13C0342F62420B5
:1070D000FFF77CFF60BB228C4AB1194B0093616AB9
:1070E00004F13C0342F62620FFF770FF00BBA06BC3
:1070F000F0B103788DF8103043888DF811301B0AF9
:107100008DF8123083888DF813301B0A8DF81430F7
:10711000C3888DF815301B0A8DF81630094B009383
:10712000072204F13C0304A942F65020FFF74EFF6A
:1071300006B010BDF49A0020DC9A0020D49A0020FA
:10714000EC9A0020E49A002029DF704728DF70477E
:1071500037B50B460C465A6814F80C1BDD680092D4
:10716000044A5B6952F8255002462046A84703B0FE
:1071700030BD00BFEC9B002038B5174C2378182297
:1071800002FB03431A795869012A0DD0032A21D141
:107190004FF080531B699BB2B0FBF3F00F4B1B68A1
:1071A0001844FFF7D3FF11E00C4A996915689A68F3
:1071B000DB682D03521BB2F5805F18442944284434
:1071C00034BF92084FF48062FFF7BEFF18B9012365
:1071D000A37038BD0F2038BDF89A0020009C002015
:1071E00070B5134D6E780A2E1FD02C783444E4B25B
:1071F000092C84BF0A3CE4B2182606FB0454A261A1
:10720000207103C9A360049BE360AB7804F1100212
:1072100082E803000BB1002003E0FFF7ADFF112867
:10722000F9D06B7801336B7070BD042070BD00BF66
:10723000F89A002038B5274B9A781D46002A47D087
:10724000002402289C7002D0032831D038BD1B785E
:107250002149182000FB03500A6880680132B0EB16
:10726000023F0A6019D86A780C60013A6A705A1CA9
:10727000D2B2182404FB0354092A88BFA3F10902DF
:10728000211D00202A70FFF763FF002304222371D1
:10729000A36022616361A361E3606B780D4CBBB1B5
:1072A000A378ABB9FFF768FF90B1112807D138BDBB
:1072B0001A78182101FB023104310D2004E02378F3
:1072C000182101FB03410431BDE83840FFF740BFFE
:1072D00038BD00BFF89A0020009C00200E4B002211
:1072E00010B51A600D4B04241A705A709A7003F18D
:1072F000F0011A719A601C615A619A61DA60183360
:107300008B424FF00000F4D1054B1860054B18601C
:1073100058609860D86010BD009C0020F89A00204A
:10732000FC9B0020EC9B0020064A1368042B07D02E
:107330000B60591C1160044A016842F823100023B5
:1073400018467047FC9B0020EC9B002013B5CC181E
:107350000C43A40707D1009313460A4601460120B7
:10736000FFF73EFF00E0102002B010BD07B500227D
:107370000B46009201460320FFF732FF03B05DF891
:1073800004FB0000094A537891780133DBB299423B
:1073900008BF0023117899421FBF0370537818204B
:1073A00000FB032014BF0430002070470C9C002019
:1073B000082910B5044602D0002000F099FB23688C
:1073C0006068BDE81040184773B5054602A8002460
:1073D00000F8014D0E4600F099FB0DF10600FFF795
:1073E000D1FF30B106700A4B9DF8062045605A70F7
:1073F00000E004249DF8070000F0AEFB24B9054B23
:107400004FF48012C3F80021204602B070BD00BFC7
:107410000C9C002000E100E0204B21491A682F233A
:1074200000BF00BF00BF00BF00BF00BF00BF00BF64
:107430008A422FD000BF00BF00BF00BF00BF00BF07
:1074400000BF00BF00BF00BF00BF00BF00BF00BF44
:1074500000BF00BF00BF00BF00BF00BF00BF00BF34
:1074600000BF00BF00BF00BF00BF00BF00BF00BF24
:1074700000BF00BF00BF00BF00BF00BF00BF00BF14
:1074800000BF00BF00BF00BF00BF00BF00BF00BF04
:1074900000BF00BF013BC3D1704700BF3084002054
:1074A0000024F4000C4B0D484FF4003210B5C3F823
:1074B000802001244FF48033C0F84833C0F80833EB
:1074C0004460FFF7A9FF064B846000201860FFF7B7
:1074D000A3FF044B187010BD00E100E00010014054
:1074E000049C0020249D0020F7B52549254B00224F
:1074F000C1F84021C1F84421C1F84821C1F84C210C
:10750000C1F80021C1F804211B68002B35D01E48AA
:10751000D1F8041504680C1B24F07F441546174667
:107520001A68A24214D8A41A15441A7CDE6962B102
:107530005A691F7400929B69144A01930821684696
:1075400000F03EFA08B100F0D3FA0EB13346E7E797
:107550000F4B104A197813788B4205D10133DBB2F7
:10756000022B08BF0023137012780B4B43F82250F4
:107570000A4B4FF48012C3F8002103B0F0BD00BFE6
:1075800000100140089C0020049C0020B1730F00F3
:10759000199D0020189D00201C9D002000E100E0A6
:1075A0002DE9F74F9C4A9D49137809789C4C9942E4
:1075B00034D00133DBB2022B08BF0023137099498A
:1075C0001278994B0F6853F822003B1823F07F4341
:1075D00000220B602368154616469646CBB1196803
:1075E000814204D902B12360091A196013E0401ADC
:1075F0000E44D968C3F800E0D3F81CC031B1BA1901
:1076000022F07F42DD615A6099601D466346012287
:10761000E4E702B123604FF0010901E00025A9462B
:10762000824F236800934FF0000ABB4655B12846AD
:10763000ED692DE0D4F8008046464146002E65D124
:10764000002303743B78797899426DD0591CB8783F
:10765000C9B2884239704FF0180101FB03B108BF6D
:107660003D700B798868022BE4D0032B4AD0012BA4
:10767000E8D1067C002EE5D1CB6843600B698360BE
:107680004B69C3608B698361694B1B7803B14660AA
:10769000644943680968674A5E1A26F07F46964245
:1076A000826801D8164405E0C91A21F07F4393424D
:1076B00002D2D61A066001E0002303600023436073
:1076C0008360C3612368564A0121017433B10168A4
:1076D0001E68B14204D8711A1960C3611060A5E731
:1076E0009E461E68B14205D9891BDE699E462EB1B1
:1076F0003346F6E7761A1E601E4673460160C66181
:10770000D86193E700212368084604E0B04263D0C3
:107710003146F66992E71BB118740121DB69FAE77B
:1077200000298FD023608DE7BAF1000F06D12368BE
:10773000009A9A4202D1B9F1000F47D02368002B7A
:1077400042D0D3F800903C4C364BD4F8046518680E
:107750003A4F351A3B7825F07F4503359BB94FF4F6
:107760008032C4F84423C4F80423354A4FF400316E
:107770004FF00108C2F880111160C4F80080FFF7D3
:107780004BFE87F80080A9452CBF00EB0903431985
:1077900023F07F40C4F84005D4F80435264A9B1BEB
:1077A00023F07F43801B033320F07F4083420DD9B9
:1077B000D2F80435C2F84035FFF72EFE204B4FF4C7
:1077C0000032C3F8002101E0FFF76CFE184B0022E5
:1077D0001A7003B0BDE8F08F884210D1D8F81C3081
:1077E000236063B90191DFF83CC0134901228A602C
:1077F000CCF800300E4B1A70FFF70EFE019933687B
:10780000F669CE6116B13268134433602368984537
:1078100018BF4FF0010A13E7199D0020189D0020A2
:10782000089C0020049C00201C9D00200C9C002033
:107830001A9D0020FEFF7F0000100140249D0020C3
:1078400000E100E008B5FFF72DFE114B00200B22F0
:1078500018709A7058700F4B18600F4B18700F4BC0
:1078600018700F4B4FF48012E021C3F8802183F889
:1078700014131A6002F18042A2F56F22C2F80805C3
:1078800083F81113074BD2F804251A6008BD00BF16
:107890000C9C0020089C0020199D0020189D0020B1
:1078A00000E100E0049C0020074B9B784BB132B113
:1078B00028B10368187C20B959745A6170470720B1
:1078C00070470820704700BF0C9C00202DE9F7434B
:1078D0001E4FBB7805460E4690469BB390B30429D5
:1078E0002ED9436973B3437C02A80024012B00F80E
:1078F000014D0CBF8946A14600F008F90DF10600C4
:10790000FFF740FD78B101230370114B4560D3F8B8
:10791000043583609DF80630C660C0F81090C0F84A
:1079200014807B7000E004249DF8070000F014F937
:1079300024B9084B4FF48012C3F80021204602E01E
:10794000072000E0082003B0BDE8F0830C9C002075
:107950000010014000E100E0064A92783AB130B1EF
:10796000426922B1002202740221FFF72DBD0820D6
:10797000704700BF0C9C002010B512F0030411D119
:10798000094B1A604B1CDB009BB21A44074B1A6070
:10799000074B1C70074B1C70074B1880074B198056
:1079A000204610BD072010BD289D00202C9D0020E2
:1079B000339D0020329D0020309D0020349D00200A
:1079C0002DE9F3472B4D2B888B4206460C46174674
:1079D0004AD302A84FF0000800F8018D00F096F895
:1079E000254B264A18781178CBB2254909888B4255
:1079F00038BF0133C0B238BF5FFA83F840450AD0C0
:107A000092F800801378DBB2994286BF0133DBB273
:107A10000023137001E04FF6FF789DF8070000F097
:107A20009BF84FF6FF73984520D0DFF85CA0DAF89A
:107A300000304FEAC80903EB090243F8387086B1F9
:107A40007CB1104B28881B68224608FB0030314669
:107A500003F039FCDAF8003099440020A9F804401A
:107A600005E00020908002E0092000E0042002B040
:107A7000BDE8F087309D0020329D0020339D00201E
:107A8000349D00202C9D0020289D0020F8B5124C2C
:107A9000124D264622782B789A421CD02378104823
:107AA000104A078812681048DBB219B202EBC10E07
:107AB000006852F83120BEF8041003FB070090471D
:107AC0000A4A23781288DBB29A4286BF0133DBB2BE
:107AD00000233370DEE7F8BD329D0020339D002087
:107AE000309D0020289D00202C9D0020349D0020EA
:107AF0001FB50021039001AA44F20100ADF8041063
:107B00000291FCF76BFE05B05DF804FB70B5EFF376
:107B1000108572B60D4A9468012394B993600C4B9A
:107B20000C49D3F88060314011600A49C3F88010D5
:107B3000D3F8841051604FF0FF32C3F884200470F2
:107B400000E0037005B962B670BD00BFB0E0002070
:107B500000E100E0FC06FFBD10B5084B9A685AB181
:107B600050B9EFF3108272B605491C680C605C686E
:107B70004C60986002B962B610BD00BFB0E0002052
:107B800000E100E00AB1138801E04FF6FF73014401
:107B9000884210D010F8012B5BBA9BB25340C3F35C
:107BA0000312534083EA03331AB2530103F4FF5321
:107BB00053409BB2ECE7184670470000064B074A5B
:107BC00000201870064B1A6010225A609860D86026
:107BD000186158619861704714C30020389D0020D7
:107BE000F8C200200020704730B5F1B1124B5C683C
:107BF00000220A60DCB1B0F5167F1AD8D8681D687B
:107C00000130013CD86018695C604FF4177404FBC4
:107C100000540C609C69012181400130214300F037
:107C20000F0018619961104630BD0E2030BD042050
:107C300030BD0C2030BD00BFF8C20020F0B51C4B99
:107C4000996891B35D691E686C1A04F00F042246AE
:107C50004FF4177707FB026E704510D19D69012024
:107C600090406840986100205E68D3F818E04FF0BB
:107C7000010C624400250E4402F00F020AE00132BA
:107C800002F00F029542E5D11020EDE749B101392C
:107C9000144601250CFA04F414EA0E0FA6EB0107B2
:107CA000F4D01DB199605F60F0BD0420F0BD00BF4D
:107CB000F8C2002006490B69013B03F00F020B6874
:107CC0004FF4177101FB0233C3F8580200207047CC
:107CD000F8C2002030B5C0B1B9B10E4BDA68B2B10C
:107CE000013ADA609A681D6801329A605A694FF465
:107CF000177404FB02540132046002F00F02D4F83E
:107D000058025A610860002030BD0E2030BD0420AA
:107D100030BD00BFF8C2002030B50B49086885B0FF
:107D200078B10A4B1C6864B1094A039000231568B6
:107D30008DF804300B601360029504AB13E9070063
:107D4000A04705B030BD00BF2CC3002024C30020D5
:107D500034C30020DC2810B506D0DD280CD0C028A4
:107D600013D1FFF7D9FF17E00D4A0E4B19681368BE
:107D7000581C1060C02206E0094A0A4B19681368B3
:107D8000581C1060DB22CA5406E0064B044A1968EE
:107D900013685C1CC8541460034B044A1A6010BD7D
:107DA0002CC3002034C300203C840020C57D0F007C
:107DB000C02802BF014B024A1A6070473C84002071
:107DC000C57D0F00C02810B405D0DB2807D1094BB2
:107DD000094A1A600AE05DF8044BFFF79DBF074BA4
:107DE000074A196813685C1CC85414605DF8044B9A
:107DF000704700BF3C840020557D0F0034C3002035
:107E00002CC3002007B502A9012201F8010D0020B2
:107E100002F014FD00280CBF0420002003B05DF820
:107E200004FB000010B5064A064C12682368D05CBB
:107E3000FFF7E8FF10B923680133236010BD00BFCE
:107E400030C3002018C3002008B5C020FFF7DAFFB8
:107E500028B9034B1B6813B9024B034A1A6008BDCB
:107E600018C3002040840020257E0F0008B5DB20C9
:107E7000FFF7C8FF10B9024B024A1A6008BD00BFE5
:107E800040840020897E0F0010B50C4A0C4C12680B
:107E90002368D35CC02B03D0DB2B0CD1DD2000E0AA
:107EA000DC20FFF7AFFF38B92368064A01332360AF
:107EB000054B1A6010BD042010BD00BF30C3002068
:107EC00018C30020257E0F00408400207FB5174C8A
:107ED000174D184E002002F04BFC20B3226872B9F7
:107EE000154B1B68FBB10292114A022112680392E2
:107EF0008DF8041004AA12E90700984713E03368CC
:107F000029689942ECD2012201A9002002F03CFC30
:107F100030B19DF80400094BC0B21B689847D9E7FF
:107F20004FF0FF30F7E704B070BD00BF34C300204E
:107F30002CC3002020C3002024C300203C84002048
:107F4000014B18600020704724C30020034B1A78AF
:107F50000AB901221A700020704700BF28C3002010
:107F6000014B00201870704728C300202DE9F04F06
:107F700087B0002855D02D4E3378012B04D0022B2A
:107F80000CBF042008204DE0294F2A4A2A4C2B4DD3
:107F9000116000233B6002233370294B2860B946EF
:107FA0009246284A23601F46C846A346D9F80010C7
:107FB000DAF8003099421BD22B68D8F80010595CCF
:107FC000C02904D0D8F800105B5CDB2B05D12368F6
:107FD000934204BF1C4BCBF80030236801929847B2
:107FE0000428019A01D100201CE01128DED1FAE713
:107FF0002760FFF729FF04460028F4D1134B1B68C4
:1080000001223270002BEED08DF80C202A680492E9
:10801000074A1268059206AA12E907009847204607
:1080200000E0102007B0BDE8F08F00BF28C300209B
:1080300018C300201CC300204084002030C300204F
:10804000497E0F00257E0F006D7E0F0024C30020A7
:10805000054B064A1860064B1960064B0020186055
:10806000054B1A60704700BF34C30020B17D0F007C
:1080700020C300202CC300203C840020064B07486E
:108080001B68DB00DBB20022037004215B424270FC
:108090008270C370FFF76ABF54C3002038C300204A
:1080A00070B52D4C2D4E024625462378012B14D059
:1080B00002D3022B20D070BD002A4BD12848FFF7F5
:1080C0004BFC08B1FFF714FD264B1B68002B41D079
:1080D000254ABDE8704010781847012A3AD1316826
:1080E000224B06311868FFF741FF08B1FFF700FD8A
:1080F00002232B700022D8E7022A16D0032A01D0CF
:1081000042BB06E01A4A1368013303F00703136009
:108110001DE0184B12481A6041F67F21FFF7D6FB8D
:10812000C0B1BDE87040FFF7E3BC124A1368052BED
:108130000AD001331360094B19680C4B06311868DB
:10814000BDE87040FFF712BF074B01221A700023F1
:108150002370CFE770BD00BF48C3002058C3002084
:108160005CC300204CC3002051C3002088C3002002
:108170007CC3002044C30020F0B585B004AB03E904
:1081800007009DF8040003285FD8DFE800F008022C
:108190005A5D012005B0BDE8F040FFF781BF039EA6
:1081A000564D032E39D9029C637813F00F021DD06F
:1081B0000E2A32D1042E7ED0227850067BD51106AD
:1081C00079D51344A278E17813440B4413F0FF02ED
:1081D00071D1B71E39462046FFF7D4FCE3195A780F
:1081E000E35D43EA0223984265D133E02178A27827
:1081F0000B441344E278134413F0FF030DD1404ABB
:1082000012680132C1F3C20102F00702914204D1A7
:108210003C4A03201370FFF743FF2C68374E1CB114
:108220004FF41671204649E031464FF41670FFF7BF
:10823000DBFC002858D004285AD02046FFF758FC11
:1082400056E00521304839E0032005B0BDE8F04094
:10825000FFF74EBC2D4922780B6802F00702D8B216
:1082600082421BD1013303F007030B60FFF706FFC7
:10827000274B012230461A70FFF71CFD08B1FFF7AB
:1082800037FC1E4C4FF416702146FFF7ADFCC8B109
:10829000042826D00020FFF72BFC22E04FF41671B3
:1082A0002868FFF7D5FE08B1FFF722FC05B0BDE84E
:1082B000F040FFF7E3BE28684FF41671FFF7C8FEE1
:1082C000C8B1C2E720684FF41671FFF7C1FE08B1CC
:1082D000FFF70EFC0F4B1B686BB14FF00000984787
:1082E00009E009480521F0E730684FF41671E5E729
:1082F00005480521E2E705B0F0BD00BF84C30020BA
:108300007CC3002051C300203CC3002054C3002084
:1083100050C3002080C300200220FFF7C1BE000030
:10832000074B10B5044618600648FFF709FE08B170
:10833000FFF7DEFB002C0CBF0E20002010BD00BF9D
:1083400080C3002079810F00174A1848002310B518
:108350001360174A1360174A1360174A1370174ABD
:108360001370174B174A01211960174B1960174BEF
:108370001970FFF799FA08B1032010BDFFF71EFC32
:1083800088B9FFF7E3FD70B9114C4FF41670214620
:10839000FFF72AFC0028EFD120684FF41671BDE8E2
:1083A0001040FFF755BE10BD88C3002074B70F0002
:1083B00058C3002044C3002050C3002048C30020FD
:1083C00054C3002019830F007CC3002051C3002038
:1083D00084C300200C4A08B5002313600B4A1360C5
:1083E000FFF700FC08B1FFF783FBFFF7B9FD08B109
:1083F000FFF77EFB0648FFF7AFFA042802D1002002
:10840000FFF776FB002008BD4CC3002080C300208E
:108410005CC3002037B50D46044690B189B10A4BC4
:1084200019780022019251B101A91A70FFF752FC8C
:10843000019B063B2B8023680433236002E0042069
:1084400000E00E2003B030BD50C300200438FFF719
:10845000F5BB18DF70470000F0B5164C87B02068F8
:108460000F466168164603AA03C213491D460868F1
:10847000237A4968137001AA104B009303C203A822
:1084800002F056FF03A90246384602F01CFF01A87D
:1084900002F04EFF01A90246304602F014FF684682
:1084A00002F046FF69460246284602F00CFF07B07C
:1084B000F0BD00BF78B70F0081B70F00312E30003C
:1084C0000120704710B51C460B781E2B05D00023E9
:1084D0002022052102F0CCFB00E00024204610BD44
:1084E000F8B5069E14460D463246002118461F4632
:1084F000FBF726FF2CB10B4B1B68DB070ED500BE2C
:108500000CE0B44207EB040106D2284600F000FA62
:10851000013504F50074F4E72046F8BD4FF0FF3054
:10852000F8BD00BFF0ED00E0F8B5069E0D461F4611
:108530000024B44207EB040108D2054A284600F0A3
:10854000BBFA18B1013504F50074F2E72046F8BD16
:108550008CC3002030B52A4C227A8DB082B107AC92
:10856000142200212046FBF7EBFE06250B9B8DF81D
:108570001C50009394E80F00FCF7B4FF28463AE043
:108580002368002B39D01F4B197819B105201A70B8
:10859000FCF7C6FC626823689A422ED307AC14220B
:1085A00000212046FBF7CCFE154B5B7AD3B10623A6
:1085B0004FF420424FF474214FF460208DF81C30AA
:1085C00002F072FE80B11022002103A8FBF7B8FE72
:1085D0004FF46023049303A84FF420530593FFF74F
:1085E00038FF01E08DF81C300B9B009394E80F00DE
:1085F000FCF778FF0620FCF793FC0DB030BD00BF00
:108600008CC3002044840020024B0B604FF40073A5
:10861000138070470901010001207047004870472E
:10862000AB840020044B054A1878054B002814BF82
:1086300010461846704700BF3CC6002060840020EA
:10864000BD8400202DE9F0431B4B85B0187020B18C
:108650001A4B2A229A720022DA72194C194FDFF84B
:108660006CC06FF0010E0EFB047202F10052D032AA
:108670000025154BE84603F110091868596846466D
:1086800003C608334B45B046F7D123782B4103F09E
:108690000F0304A90B44043513F8103C02F8013D04
:1086A000082DE6D101346445DDD1064B00221A7451
:1086B00005B0BDE8F08300BF3CC60020AB840020BD
:1086C00060000010A8C5002089B70F0068000010E6
:1086D00010B538B9144B15481968022202F0F3FDA1
:1086E000012317E005281CD80F4B53F820402046E3
:1086F00002F01EFEC0B203461F280C4828BF1F23ED
:1087000021460A1BD2B2934204D911F8012B20F85A
:10871000022BF6E7013306485B0043F44073038005
:1087200010BD002010BD00BF48840020BCC5002043
:10873000BAC500204DDF70474EDF70474FDF7047EE
:1087400050DF704712DF7047002000F0F3BC0000DC
:108750001FB5244B402283F8272300238DF80730D0
:1087600043F2040304461A681F4B9A4203D10DF1E9
:108770000700FFF7E7FF9DF8073063B10120FFF71F
:10878000DBFF0120FFF7D6FF0120FFF7D7FF02A88C
:10879000FFF7D6FF11E004A800F80C3DFCF710FC31
:1087A00004A8124B40F8043DFCF732FCFCF73AFCFD
:1087B0004FF08043D3F838340293029BDA0702D596
:1087C000002000F023FE029B9B0702D5022000F050
:1087D0001DFE2046FFF736FF00F014F802F036FDCC
:1087E00004B010BD00E100E0DBE5B1510D940F00D5
:1087F000012000F00BBE0120FCF792BB0220FCF729
:108800008FBB00007FB53149314802F082FD43F251
:1088100004031A682F4B9A4251D14FF440531B78EE
:10882000102B08D943F21002142B106806D943F21A
:1088300014031A6803E00020024600E00022264BE1
:10884000B2FBF3F603FB16234FF47A7201A9B3FBD4
:10885000F2F502FB15340A2202F0AEFD1F491C4856
:1088600002F057FD01A91A4802F053FD1C491848AF
:1088700002F04FFD0A2201A9304602F09DFD01A938
:10888000134802F046FD1749114802F042FD0A2242
:1088900001A9284602F090FD01A90D4802F039FD1A
:1088A00010490B4802F035FD0A2201A9204602F0CA
:1088B00083FD01A9064802F02CFD0B4900E00B499D
:1088C000034802F026FD04B070BD00BF31B80F00B0
:1088D0001F850020DBE5B15140420F003EB80F007C
:1088E0003CB80F0040B80F004BB80F0042B80F0063
:1088F00030B5034620251C1AA24207DD0C7814B1BE
:1089000001311C7000E01D700133F4E730BD000040
:108910002DE9F0410C4605464FF400720021204637
:10892000FBF70EFD65B93E225C49204602F0CBFC08
:10893000552384F8FE31AA2384F8FF31BDE8F08185
:10894000B5F5017F2CD86B1EB3F5817F24BF6FF482
:1089500081702B183BB11B0203F58070A4EB43041C
:1089600040F693650AE0F822227004F109012246DC
:10897000FF2002F8010F8A42FBD1ECE71A1FB2F583
:10898000696F03F1010206D2AB4214BF91B24FF6F8
:10899000FF7124F8131082421346EFD1BDE8F08135
:1089A000B5F5027F3CD86FF401710D443DB9204606
:1089B0000B223B49FFF79CFF2823E3722034394BFD
:1089C0002E014FF0640803EB05250027022E25D861
:1089D0000B2229462046FFF78BFF562363206FF0BA
:1089E0004B0231216374E3746376B31C84F80D8009
:1089F000A073E1732274A27427756775A075E17581
:108A000022766383E86810B102F092FC01E04FF433
:108A1000E910E061013620341035D7E7BDE8F08178
:108A2000214B9D4237D86FF40272AA18012A0AD846
:108A30001C4B03EB0213DD68284602F079FC294643
:108A40000246204623E06FF4FD73E9180902B1F5F0
:108A5000801F20D2154B236003F1144303F52C1320
:108A600003F602336360124BC4F8FC314FF46963C0
:108A7000A3614FF40053A5F20B254FF48072A3605D
:108A80000C4B6561E1602261E36104F12000BDE807
:108A9000F04102F018BCBDE8F08100BF4EB80F00F5
:108AA00079B80F008CB80F00080101005546320A52
:108AB000306FB10A29009A23F7B5664B15460A684C
:108AC0009A420C4620D103F114434A6803F52C1353
:108AD00003F602339A4217D1D1F8FC215E4B9A4239
:108AE00012D18A6842F201031340B3F5005F0BD143
:108AF0000B69B3F5807F07D1C86810F0FF0F03D171
:108B000005E0B0F5805F44D34FF0FF30A0E0CB69C3
:108B1000524A93420AD1A0F58053B3F5692FF0D29F
:108B200001234FF4807204F1200119E04C4A934272
:108B300040F0898001266E72E368B3F1102F12D0E5
:108B4000A3F57422B2F5204F77D2EE7A04F1200714
:108B5000002E51D0E068226901233946A0F5A030EB
:108B6000FBF7E6FD15E0042204F13401684602F04B
:108B7000AAFB042204F138010DEB020002F0A3FB72
:108B8000009BB3F5742F35D1019BB3F57E2F31D106
:108B9000AE72A3695BB32A68934207D041F26301C6
:108BA0008B4200D80AB14FF0FF332B60636941F26A
:108BB000630293421BD803F0070105EBD3030122A4
:108BC0008A40197BD2B20A4204D10A431A736B68F5
:108BD00001336B606A682B689A4208D30120FBF767
:108BE00089FD6B7A1BB1AB7A0BB901232B724FF461
:108BF00000702DE02E7287E71A4A9342AAD32369A8
:108C00009E42A7D206F1200104222144684602F0C8
:108C10005AFB009BD02B0ED10422311D0DEB02001C
:108C2000394402F050FB104B019A9A424FF0010375
:108C300007D1EB728EE70836E1E7B3F5805FA8D382
:108C400001232B7260E7084A93427FF45DAF62E72D
:108C500003B0F0BD5546320A306FB10A4028A5ADC9
:108C60003C8263D600D80F0029009A23064B18686F
:108C7000082804D104331B680BB101207047A0F110
:108C80000D035842584170473001001042DF7047D1
:108C900043DF704744DF704712DF704770B4224AE9
:108CA00092F8D830014683B3204B5B68C3F30803C6
:108CB00023B101221E4870BC01F04AB8EFF31080C6
:108CC00020B91C4B5B68C3F3C013D3B91A4D92F89B
:108CD000D800DBB2984218DDD5F82C01D5F8503118
:108CE00003440020840004F1804404F51C34013066
:108CF000D4F80861D4F83041082834442344F1D131
:108D0000E5E792F8D830002BFBD192F8D830013348
:108D1000DBB282F8D83001230B60BFF36F8FBFF353
:108D20004F8F70BC704700BF40C6002000ED00E0D0
:108D30009D8C0F0000E100E000700240082870B533
:108D40001A4B1B4E05460BD1D3F8C044E2031FD487
:108D5000D6F8C020C3F8A0271648C3F8A44714E0EB
:108D600000F5947253F8224018234343E4B2F258BA
:108D70001423434303F1804303F51C33C3F8002756
:108D8000C3F8044783000C481844FFF787FF00E04E
:108D9000002418235D437219735923447351D388F7
:108DA00014FA83F4A4B2D48070BD00BF00700240F6
:108DB00040C60020487002402870024010B4104A9B
:108DC000182303FB0022138A518AD468591A938A04
:108DD00089B2994228BF19461423434303F18043C3
:108DE00003F51C33C3F80046C3F804162144054BB1
:108DF000D16003EB80005DF8044BFFF74FBF00BF6D
:108E000040C600200470024007B543F204031A680C
:108E1000094B9A424FF000030AD102A800F8013D25
:108E2000FFF73AFF9DF80700003018BF012000E06F
:108E3000184603B05DF804FBDBE5B15107B5FFF759
:108E4000E3FF50B102A8002340F8043DFFF722FFE2
:108E50000198003018BF012009E04FF08043D3F89B
:108E60000C0400F00110A0F101135842584103B066
:108E70005DF804FB08B5FFF711FF054A92F8D830FA
:108E80002BB192F8D830013BDBB282F8D83008BD64
:108E900040C6002070470000014B80225A60704796
:108EA00000E100E0024B8022C3F88420704700BF3D
:108EB00000E100E0074BD3F80014D3F800240A4384
:108EC000C3F800240022C3F858214FF48002C3F8ED
:108ED000042370470070024070B58A78424D02F05A
:108EE0007F03182052B2D40F0C26584306FB04000F
:108EF0004C790E79284404F0070446EA04240481DE
:108F0000C97801F00301012923D0002A37494FF025
:108F1000010211DB03F10C0002FA00F0C1F80403B6
:108F2000D1F814059A40024303F59473C1F814254F
:108F3000002241F8232051E0981C02FA00F0C1F809
:108F40000403D1F8100502FA03F30343C1F8103506
:108F500044E0082B07D0264B186810F0010042D0DF
:108F600000BE002070BD002A204B1CDBB5F8D420C9
:108F700012B18022C3F81C250022C3F85021D3F877
:108F8000003313F4001304BF184AC2F85431174BCE
:108F90004FF44012C3F80423D3F8142542F480722E
:108FA000C3F814251AE00022C3F82C21B5F8C82014
:108FB00012B18022C3F81C25D3F8003313F4001338
:108FC00004BF0A4AC2F85431084B0A4AC3F80423C2
:108FD000D3F8102542F48072C3F81025BFF36F8FC9
:108FE000BFF34F8F012070BD40C6002000700240CB
:108FF000F0ED00E0000820002DE9F34101F07F00D2
:109000004EB2182598460C241E4B0F464543F10FCF
:1090100004FB01555C195A510023A4F80480E38035
:1090200008BBB8F1000F18D1174BD3F88034C3F345
:10903000C013994211D01548FFF71CFF144B5A6812
:10904000C2F30802003218BF012200924346424692
:109050003946404600F067FE0FE0002E05DB0D4864
:10906000FFF708FF09E0002E02DAFFF7A7FE04E091
:10907000A27A12B1A372FFF761FE012002B0BDE82F
:10908000F08100BF40C600200070024050700240D6
:1090900000ED00E04C70024011F07F0303D1084B5B
:1090A00001225A6506E0082B1EBF054B41F4807172
:1090B000C3F81815BFF36F8FBFF34F8F704700BF12
:1090C0000070024011F0770F11D0094B41F480720B
:1090D000C3F81815C3F80C250A065EBF01F5947194
:1090E000002243F82120BFF36F8FBFF34F8F7047EB
:1090F0000070024010B500221046930003F1804337
:1091000003F51C330132082A58604FF000019862C1
:10911000F3D1064B064C5962DC2299642046FBF7DA
:109120000FF94023A382238110BD00BF00700240CD
:1091300040C600202DE9F04FAC4BD3F800130023BC
:1091400085B01C4601201D4621FA03F2D2070CD53A
:10915000A74A1A44920016683EB100FA03F6344357
:109160001560BFF36F8FBFF34F8F0133192BEBD116
:10917000E30706D5FFF7BEFF00210122084600F0F5
:10918000A9FD14F4006F9B4E08D0984BD3F8A83675
:109190009BB2A6F8D230012386F8D730A7021CD59F
:1091A000924BD3F81435DD0502D50820FFF7C6FD34
:1091B00096F8D7308F4A5BB1002382F8D730B2F8E7
:1091C000D2200121009192B28821184600F0ABFD17
:1091D00001220321002000F06DFD600217D5834FAE
:1091E000D7F8005405F44073E905C7F8003407D5F3
:1091F00001220421002000F05DFD0123C7F82C3579
:10920000AA0504D501220521002000F053FD230208
:109210002CD5764BD3F880248DF80820D3F88424FD
:10922000D2B28DF80920D3F888148DF80A10D3F83B
:109230008C148DF80B10D3F890148DF80C10D3F813
:1092400094148DF80D10D3F898148DF80E10D3F8EF
:109250009C348DF80F309DF808305F0601D1052A47
:1092600004D0012202A9002000F047FD624B2340F8
:1092700063B196F8D8302BB9604B1B68DD0705D574
:1092800000BE03E05B4B002283F8D820594F002535
:10929000B84605F10C0324FA03F3D807E9B230D538
:1092A00014236B4303F1804303F51C33082DD3F8DB
:1092B0000837DBB218D03A899A4215D1182303FB3C
:1092C0000563BA88DB889BB29A420DD9C9B998F870
:1092D000D8302BB101224A494A4800F039FD10E04C
:1092E0004748FFF7C7FD0CE0182303FB0563DA8846
:1092F000BA80DA8801230093002392B2184600F066
:1093000012FD0135092D07F11807C2D13E4B23404C
:10931000002B68D0354BD3F86C74C3F86C74BFF372
:109320006F8FBFF34F8F14F4806407D0D3F880445D
:10933000D3F880341906C4F3C01402D54FF00008E6
:1093400001E04FF0010800254FF014094FF0180A12
:109350004FF0010B27FA05F3DA07E8B201D40DBB91
:1093600004B309FB05F303F1804303F51C33D3F881
:1093700004160AFB05635A8A11FA82F292B25A82E3
:109380005A8A198A92B2914202D9FFF717FD09E071
:109390005A8ACDF800B0002340F0800192B21846FE
:1093A00000F0C1FC0135082DD4D1002418254FF060
:1093B000010904F1100327FA03F3DB07E0B203D439
:1093C00074B9B8F1000F0BD005FB0463DA889988F3
:1093D00092B2914202D9FFF7B1FC01E083F80A9002
:1093E0000134082CE5D105B0BDE8F08F00700240D3
:1093F000409C001040C60020FCFB1F00F0ED00E088
:109400004C700240758E0F0000040001012813B556
:10941000014600F0A88002D3022849D0CFE0694B72
:10942000D3F80025002A40F0CA804FF40062C3F848
:109430000024BFF36F8FBFF34F8FFFF717FC58B1B6
:10944000614B624A1868032128B949F275301860E7
:109450001160186000E011605D4B1B68082B0BD198
:10946000594B5C4A1868C02128B949F27530186018
:109470001160186000E01160524B0121C3F8001523
:10948000BFF36F8FBFF34F8FFFF7D8FC002840F07A
:109490009680FFF7B9FC10B1FFF7F8FB8FE04E4B59
:1094A00018601B680193019B4FF08043196086E0B0
:1094B000444BD3F8042519461AB1FFF7BFFC002826
:1094C0007DD1D1F800341B05FBD53E4B4FF4006233
:1094D000C3F80024BFF36F8FBFF34F8F3C4B1B6863
:1094E000082B0BD1384B3B4A186828B949F2753123
:1094F00019601060196001E000231360FFF7B6FBEC
:1095000058B1314B314A186828B949F275311960A0
:109510001060196001E0002313602D4B1B68082BBD
:1095200009D12E4B40F2E3721A6040225A60BFF319
:109530006F8FBFF34F8F234B29498022C3F81C251F
:10954000C3F804132749C1F884214A601946FFF77C
:1095500075FC0028FBD00123C1F80435BFF36F8FE1
:10956000BFF34F8F2BE0174BD3F800253AB30022FF
:10957000C3F80425BFF36F8FBFF34F8F19488024C2
:10958000C0F88440D3F80003C3F80803C3F80025EB
:10959000BFF36F8FBFF34F8FFFF736FC10B1FFF7AC
:1095A00077FB01E0104B1960104B5A68C2F30802B8
:1095B000003218BF01220221002000F07BFB02B024
:1095C00010BD00BF0070024000EC064014ED0640E4
:1095D0003001001014EC0640000100400078024009
:1095E0000514800100E100E00400004000ED00E00F
:1095F0000A4492B2914202D88389934202D24089AE
:10960000024492B2104670478388CB1A9BB29942AB
:1096100002D382899A4202D242899B1A9BB2038268
:109620007047F7B50446900803460D464FF6FF769F
:10963000013B9BB2B34203D055F8047B2760F7E7A8
:1096400012F0030201EB800107D002A8002340F8CA
:10965000043D01F038FE019B236003B0F0BD2DE90D
:10966000F347BDF828509DF82C900646AB42A3EB7B
:10967000050084B238BF7089904638BF201AB2887E
:1096800038BF84B2A2420F4606D219463046FFF7D1
:10969000BBFF358AB488ADB2002C74D04445B18884
:1096A00028BF4446A94202D86D1AADB2FAE7491B59
:1096B000F288336889B2C1EB040A11FB02F81AFB85
:1096C00002FA1FFA88F81FFA8AFA02FB0535B9F187
:1096D000000F03D0B9F1010F12D054E08C4203D82F
:1096E00062432946384608E042462946384601F09A
:1096F000EAFD3168524607EB080001F0E4FD42E064
:109700008C4204D814FB02F292B2294638E028F0C9
:1097100003091FFA89F94A4629463846FFF781FFAF
:1097200018F0030827D0C8F1040189B2514528BFB9
:10973000514600234D44C1EB0A0A01931FFA8AFAED
:109740000DF1030305EB0802954204D015F8010B57
:1097500003F8010FF8E7336802AA9044A8F105085E
:1097600019448B4204D013F8012B08F8012FF8E7B5
:10977000019B3B6000E03168BAF1000F03D0524614
:109780003846FFF74EFF204602B0BDE8F087F7B538
:109790009408234605464FF6FF76013B9BB2B34241
:1097A00003D00F6845F8047BF7E712F0030200EBE3
:1097B000840005D00B6802A941F8043D01F083FD47
:1097C00003B0F0BD70B505469A42A2EB03001C46FB
:1097D00038BF6B8980B238BFC01AAB8838BF80B23F
:1097E00083420E4604D228461146FFF70DFFA88893
:1097F00068B1AA88A24202D8A41AA4B2FAE7EA88F9
:109800002968304602FB041101F05DFD012070BDA6
:109810002DE9F74F0546C789008A14462A7A0E4675
:10982000BFB280B2A98872B98742A7EB000238BFE5
:10983000688992B23CBF121A92B28A1A92B29442CA
:1098400028BF144607E08C4205D3EA88641A02FB5D
:10985000046607460C46B946494504D8C1EB0909D8
:109860001FFA89F9F8E7C9EB0101EA88286889B28B
:10987000C1EB040811FB02FA18FB02F81FFA8AFA7E
:109880001FFA88F802FB090913B1012B12D050E02E
:109890008C4203D862433146484608E0524631467E
:1098A000484601F010FD2868424606EB0A0101F027
:1098B0000AFD3EE08C4205D814FB02F292B231461A
:1098C000484634E02AF0030B1FFA8BFB5A46314618
:1098D0004846FFF75CFF1AF0030A22D0CAF10400E1
:1098E00080B2404528BF404633680193C0EB08086A
:1098F000D9441FFA88F8002301AA995C09F80310DB
:1099000001335345F8D113442A6803EB000E511E6E
:10991000734504D013F801CB01F801CFF8E71044E8
:1099200000E02868B8F1000F03D042463146FFF747
:109930002EFF224639462846FFF75AFEE881204688
:1099400003B0BDE8F08FB2F5004F10D8828052000E
:10995000013AC38092B29DF80030037282810023E5
:10996000D243C381016042810382012070470020FD
:109970007047C189028A89B292B29142A1EB020377
:1099800038BF428980889BB23CBF9B1A9BB29842E9
:1099900028BF18467047C289038A92B298B2131A38
:1099A00058425841704710B5C189028A848889B2EB
:1099B00092B2914238BF4089A1EB02039BB23CBFF7
:1099C0001B1A9BB2E01A80B210BD38B5C289038A57
:1099D00004469BB292B2FFF7F5FE218A054682B299
:1099E00089B22046FFF704FE2082284638BD73B5B1
:1099F000C389058A0026ADB204468DE860009BB29B
:109A0000FFF72DFE218A0546024689B22046FFF760
:109A1000EFFD2082284602B070BD38B5C589028AA4
:109A2000ADB292B29542A5EB020338BF42899BB218
:109A300038BF9B1A828838BF9BB29A42044601D134
:109A4000007A90B12846904202D3801A80B2FAE799
:109A5000E288236802FB003001F035FC0122294630
:109A60002046FFF7C5FDE081012038BD12B100237B
:109A7000FFF7CEBE104670470023C3810382838860
:109A80005B00013B9BB28381DB4343810120704734
:109A900001720120704700000B4B63B10B4B1B7828
:109AA000984206D20A4B1B6800EB400003EBC00053
:109AB0007047C01AC0B201289DBF064B182202FB96
:109AC00000300020704700BF000000001CC70020CD
:109AD0005CC70020BCB80F0070B5372200210646D5
